{"abi":[{"type":"function","name":"ping","inputs":[],"outputs":[],"stateMutability":"nonpayable"},{"type":"event","name":"Pong","inputs":[{"name":"caller","type":"address","indexed":true,"internalType":"address"}],"anonymous":false}],"bytecode":{"object":"0x6080604052348015600f57600080fd5b50609880601d6000396000f3fe6080604052348015600f57600080fd5b506004361060285760003560e01c80635c36b18614602d575b600080fd5b60336035565b005b60405133907f94b7abe75f0bad8adf0eabc78f42df03b0e63b7e67d6d5c687fbead07452acc790600090a256fea26469706673582212207449ac0297d7bec6fbba0ebea828257c334d992d1df8542d1b8941eb2511be3464736f6c634300081b0033","linkReferences":{}},"methodIdentifiers":{"ping()":"5c36b186"},"id":16}